{
  "contractName": "Directory",
  "abi": [
    {
      "constant": true,
      "inputs": [
        {
          "name": "",
          "type": "address"
        }
      ],
      "name": "participantContracts",
      "outputs": [
        {
          "name": "",
          "type": "address"
        }
      ],
      "payable": false,
      "stateMutability": "view",
      "type": "function"
    },
    {
      "constant": true,
      "inputs": [
        {
          "name": "",
          "type": "uint256"
        }
      ],
      "name": "participants",
      "outputs": [
        {
          "name": "",
          "type": "address"
        }
      ],
      "payable": false,
      "stateMutability": "view",
      "type": "function"
    },
    {
      "constant": true,
      "inputs": [],
      "name": "totalParticipants",
      "outputs": [
        {
          "name": "",
          "type": "uint256"
        }
      ],
      "payable": false,
      "stateMutability": "view",
      "type": "function"
    },
    {
      "anonymous": false,
      "inputs": [
        {
          "indexed": true,
          "name": "_participant",
          "type": "address"
        },
        {
          "indexed": true,
          "name": "_portfolio",
          "type": "address"
        }
      ],
      "name": "ParticipantAdded",
      "type": "event"
    },
    {
      "constant": false,
      "inputs": [
        {
          "name": "myWalletAddress",
          "type": "address"
        },
        {
          "name": "portfolioAddress",
          "type": "address"
        }
      ],
      "name": "addMyPortfolio",
      "outputs": [],
      "payable": false,
      "stateMutability": "nonpayable",
      "type": "function"
    }
  ],
  "bytecode": "0x608060405234801561001057600080fd5b506106ac806100206000396000f3fe608060405260043610610062576000357c0100000000000000000000000000000000000000000000000000000000900463ffffffff168063047311af1461006757806335c1d349146100f85780635522d46514610173578063a26dbf26146101e4575b600080fd5b34801561007357600080fd5b506100b66004803603602081101561008a57600080fd5b81019080803573ffffffffffffffffffffffffffffffffffffffff16906020019092919050505061020f565b604051808273ffffffffffffffffffffffffffffffffffffffff1673ffffffffffffffffffffffffffffffffffffffff16815260200191505060405180910390f35b34801561010457600080fd5b506101316004803603602081101561011b57600080fd5b8101908080359060200190929190505050610242565b604051808273ffffffffffffffffffffffffffffffffffffffff1673ffffffffffffffffffffffffffffffffffffffff16815260200191505060405180910390f35b34801561017f57600080fd5b506101e26004803603604081101561019657600080fd5b81019080803573ffffffffffffffffffffffffffffffffffffffff169060200190929190803573ffffffffffffffffffffffffffffffffffffffff169060200190929190505050610280565b005b3480156101f057600080fd5b506101f961067a565b6040518082815260200191505060405180910390f35b60026020528060005260406000206000915054906101000a900473ffffffffffffffffffffffffffffffffffffffff1681565b60018181548110151561025157fe5b906000526020600020016000915054906101000a900473ffffffffffffffffffffffffffffffffffffffff1681565b8073ffffffffffffffffffffffffffffffffffffffff16600260008473ffffffffffffffffffffffffffffffffffffffff1673ffffffffffffffffffffffffffffffffffffffff16815260200190815260200160002060009054906101000a900473ffffffffffffffffffffffffffffffffffffffff1673ffffffffffffffffffffffffffffffffffffffff161415610381576040517f08c379a000000000000000000000000000000000000000000000000000000000815260040180806020018281038252600e8152602001807f416c72656164792065786973747300000000000000000000000000000000000081525060200191505060405180910390fd5b80600360006101000a81548173ffffffffffffffffffffffffffffffffffffffff021916908373ffffffffffffffffffffffffffffffffffffffff160217905550600360009054906101000a900473ffffffffffffffffffffffffffffffffffffffff1673ffffffffffffffffffffffffffffffffffffffff16632f54bf6e336040518263ffffffff167c0100000000000000000000000000000000000000000000000000000000028152600401808273ffffffffffffffffffffffffffffffffffffffff1673ffffffffffffffffffffffffffffffffffffffff16815260200191505060206040518083038186803b15801561047d57600080fd5b505afa158015610491573d6000803e3d6000fd5b505050506040513d60208110156104a757600080fd5b8101908080519060200190929190505050151561052c576040517f08c379a00000000000000000000000000000000000000000000000000000000081526004018080602001828103825260138152602001807f596f75206172656e7420746865206f776e65720000000000000000000000000081525060200191505060405180910390fd5b80600260008473ffffffffffffffffffffffffffffffffffffffff1673ffffffffffffffffffffffffffffffffffffffff16815260200190815260200160002060006101000a81548173ffffffffffffffffffffffffffffffffffffffff021916908373ffffffffffffffffffffffffffffffffffffffff16021790555060018290806001815401808255809150509060018203906000526020600020016000909192909190916101000a81548173ffffffffffffffffffffffffffffffffffffffff021916908373ffffffffffffffffffffffffffffffffffffffff160217905550506001600054016000819055508073ffffffffffffffffffffffffffffffffffffffff168273ffffffffffffffffffffffffffffffffffffffff167f119e122c61ad3b30c983b771c049ab9492eb8f973f44de704f52715cb5c12c3160405160405180910390a35050565b6000548156fea165627a7a72305820dedbda062bf7a0285408d0c67c91c268351e4e3589340db5db80ed3b255457a20029",
  "source": "pragma solidity ^0.5.0;\n\ninterface PortfolioInterface {\n  function isOwner(address _address) external view returns(bool);\n}\n\ncontract Directory {\n  uint256 public totalParticipants;\n  address[] public participants;\n\n  /// @dev first address is user wallet, second address is public profile contract\n  mapping(address => address) public participantContracts;\n\n  PortfolioInterface portfolio;\n\n  event ParticipantAdded(address indexed _participant, address indexed _portfolio);\n\n  /// @dev add me as a participant, only if i am the owner of my portfolio contract\n  function addMyPortfolio(address myWalletAddress, address portfolioAddress) public {\n    // First quick sanity check on if we're already here\n    if (participantContracts[myWalletAddress] == portfolioAddress) revert(\"Already exists\");\n    // NOTE: Currently left it open, so I could update my portfolio contract address later\n\n    // Next, make sure we are the owner of the portfolio\n    portfolio = PortfolioInterface(portfolioAddress);\n    require(portfolio.isOwner(msg.sender), \"You arent the owner\");\n\n    // Now we're here we can finally to the logic\n    participantContracts[myWalletAddress] = portfolioAddress;\n    // no safemath, i know im a bad human!\n    participants.push(myWalletAddress);\n    totalParticipants = totalParticipants + 1;\n\n    emit ParticipantAdded(myWalletAddress, portfolioAddress);\n  }\n}\n",
  "sourcePath": "/Users/trevorclarke/gitlab/circles/contracts/Directory.sol",
  "compiler": {
    "name": "solc",
    "version": "0.5.0+commit.1d4f565a.Emscripten.clang"
  },
  "schemaVersion": "3.0.6",
  "updatedAt": "2019-06-26T20:06:49.120Z",
  "devdoc": {
    "methods": {
      "addMyPortfolio(address,address)": {
        "details": "add me as a participant, only if i am the owner of my portfolio contract"
      }
    }
  },
  "userdoc": {
    "methods": {}
  }
}