{
  "contractName": "Portfolio",
  "abi": [
    {
      "constant": true,
      "inputs": [],
      "name": "firstName",
      "outputs": [
        {
          "name": "",
          "type": "string"
        }
      ],
      "payable": false,
      "stateMutability": "view",
      "type": "function"
    },
    {
      "constant": true,
      "inputs": [],
      "name": "owner",
      "outputs": [
        {
          "name": "",
          "type": "address"
        }
      ],
      "payable": false,
      "stateMutability": "view",
      "type": "function"
    },
    {
      "constant": true,
      "inputs": [],
      "name": "lastName",
      "outputs": [
        {
          "name": "",
          "type": "string"
        }
      ],
      "payable": false,
      "stateMutability": "view",
      "type": "function"
    },
    {
      "constant": true,
      "inputs": [],
      "name": "hireMe",
      "outputs": [
        {
          "name": "",
          "type": "bool"
        }
      ],
      "payable": false,
      "stateMutability": "view",
      "type": "function"
    },
    {
      "constant": true,
      "inputs": [],
      "name": "skillsTotal",
      "outputs": [
        {
          "name": "",
          "type": "uint256"
        }
      ],
      "payable": false,
      "stateMutability": "view",
      "type": "function"
    },
    {
      "inputs": [],
      "payable": true,
      "stateMutability": "payable",
      "type": "constructor"
    },
    {
      "anonymous": false,
      "inputs": [
        {
          "indexed": true,
          "name": "owner",
          "type": "address"
        },
        {
          "indexed": true,
          "name": "first",
          "type": "string"
        },
        {
          "indexed": false,
          "name": "last",
          "type": "string"
        }
      ],
      "name": "UpdateName",
      "type": "event"
    },
    {
      "anonymous": false,
      "inputs": [
        {
          "indexed": true,
          "name": "owner",
          "type": "address"
        },
        {
          "indexed": true,
          "name": "skills",
          "type": "uint256"
        }
      ],
      "name": "UpdateSkills",
      "type": "event"
    },
    {
      "anonymous": false,
      "inputs": [
        {
          "indexed": true,
          "name": "owner",
          "type": "address"
        },
        {
          "indexed": true,
          "name": "hire",
          "type": "bool"
        }
      ],
      "name": "UpdateHireStatus",
      "type": "event"
    },
    {
      "constant": true,
      "inputs": [
        {
          "name": "_address",
          "type": "address"
        }
      ],
      "name": "isOwner",
      "outputs": [
        {
          "name": "",
          "type": "bool"
        }
      ],
      "payable": false,
      "stateMutability": "view",
      "type": "function"
    },
    {
      "constant": false,
      "inputs": [
        {
          "name": "_first",
          "type": "string"
        }
      ],
      "name": "updateFirstname",
      "outputs": [],
      "payable": false,
      "stateMutability": "nonpayable",
      "type": "function"
    },
    {
      "constant": false,
      "inputs": [
        {
          "name": "_last",
          "type": "string"
        }
      ],
      "name": "updateLastname",
      "outputs": [],
      "payable": false,
      "stateMutability": "nonpayable",
      "type": "function"
    },
    {
      "constant": true,
      "inputs": [],
      "name": "getFullname",
      "outputs": [
        {
          "name": "_firstName",
          "type": "string"
        },
        {
          "name": "_lastName",
          "type": "string"
        }
      ],
      "payable": false,
      "stateMutability": "view",
      "type": "function"
    },
    {
      "constant": false,
      "inputs": [],
      "name": "incrementSkills",
      "outputs": [],
      "payable": false,
      "stateMutability": "nonpayable",
      "type": "function"
    },
    {
      "constant": false,
      "inputs": [
        {
          "name": "_hire",
          "type": "bool"
        }
      ],
      "name": "updateHireStatus",
      "outputs": [],
      "payable": false,
      "stateMutability": "nonpayable",
      "type": "function"
    }
  ],
  "bytecode": "0x608060405260008060006101000a81548160ff021916908315150217905550600060015533600260006101000a81548173ffffffffffffffffffffffffffffffffffffffff021916908373ffffffffffffffffffffffffffffffffffffffff160217905550600360405180828054600181600116156101000203166002900480156100c15780601f1061009f5761010080835404028352918201916100c1565b820191906000526020600020905b8154815290600101906020018083116100ad575b50509150506040518091039020600260009054906101000a900473ffffffffffffffffffffffffffffffffffffffff1673ffffffffffffffffffffffffffffffffffffffff167ff5acdb66b114f94a468ec7f4cce914d93b1e913ab05eb6f0ffda215ab7ea3774600460405180806020018281038252838181546001816001161561010002031660029004815260200191508054600181600116156101000203166002900480156101b35780601f10610188576101008083540402835291602001916101b3565b820191906000526020600020905b81548152906001019060200180831161019657829003601f168201915b50509250505060405180910390a36110e9806101d06000396000f3fe6080604052600436106100af576000357c0100000000000000000000000000000000000000000000000000000000900463ffffffff1680632f54bf6e146100b45780634589fe0c1461011d5780635140d555146101ad57806377caa642146102755780638da5cb5b146102b25780639ab03dcb14610309578063b1330e7d14610399578063c353c06a146103b0578063c8bd6460146103df578063cefb459c1461040a578063de4602b5146104d2575b600080fd5b3480156100c057600080fd5b50610103600480360360208110156100d757600080fd5b81019080803573ffffffffffffffffffffffffffffffffffffffff1690602001909291905050506105ce565b604051808215151515815260200191505060405180910390f35b34801561012957600080fd5b50610132610628565b6040518080602001828103825283818151815260200191508051906020019080838360005b83811015610172578082015181840152602081019050610157565b50505050905090810190601f16801561019f5780820380516001836020036101000a031916815260200191505b509250505060405180910390f35b3480156101b957600080fd5b50610273600480360360208110156101d057600080fd5b81019080803590602001906401000000008111156101ed57600080fd5b8201836020820111156101ff57600080fd5b8035906020019184600183028401116401000000008311171561022157600080fd5b91908080601f016020809104026020016040519081016040528093929190818152602001838380828437600081840152601f19601f8201169050808301925050505050505091929192905050506106c6565b005b34801561028157600080fd5b506102b06004803603602081101561029857600080fd5b81019080803515159060200190929190505050610902565b005b3480156102be57600080fd5b506102c7610a7f565b604051808273ffffffffffffffffffffffffffffffffffffffff1673ffffffffffffffffffffffffffffffffffffffff16815260200191505060405180910390f35b34801561031557600080fd5b5061031e610aa5565b6040518080602001828103825283818151815260200191508051906020019080838360005b8381101561035e578082015181840152602081019050610343565b50505050905090810190601f16801561038b5780820380516001836020036101000a031916815260200191505b509250505060405180910390f35b3480156103a557600080fd5b506103ae610b43565b005b3480156103bc57600080fd5b506103c5610c7d565b604051808215151515815260200191505060405180910390f35b3480156103eb57600080fd5b506103f4610c8f565b6040518082815260200191505060405180910390f35b34801561041657600080fd5b506104d06004803603602081101561042d57600080fd5b810190808035906020019064010000000081111561044a57600080fd5b82018360208201111561045c57600080fd5b8035906020019184600183028401116401000000008311171561047e57600080fd5b91908080601f016020809104026020016040519081016040528093929190818152602001838380828437600081840152601f19601f820116905080830192505050505050509192919290505050610c95565b005b3480156104de57600080fd5b506104e7610ed1565b604051808060200180602001838103835285818151815260200191508051906020019080838360005b8381101561052b578082015181840152602081019050610510565b50505050905090810190601f1680156105585780820380516001836020036101000a031916815260200191505b50838103825284818151815260200191508051906020019080838360005b83811015610591578082015181840152602081019050610576565b50505050905090810190601f1680156105be5780820380516001836020036101000a031916815260200191505b5094505050505060405180910390f35b6000600260009054906101000a900473ffffffffffffffffffffffffffffffffffffffff1673ffffffffffffffffffffffffffffffffffffffff168273ffffffffffffffffffffffffffffffffffffffff16149050919050565b60038054600181600116156101000203166002900480601f0160208091040260200160405190810160405280929190818152602001828054600181600116156101000203166002900480156106be5780601f10610693576101008083540402835291602001916106be565b820191906000526020600020905b8154815290600101906020018083116106a157829003601f168201915b505050505081565b600260009054906101000a900473ffffffffffffffffffffffffffffffffffffffff1673ffffffffffffffffffffffffffffffffffffffff163373ffffffffffffffffffffffffffffffffffffffff1614151561078b576040517f08c379a00000000000000000000000000000000000000000000000000000000081526004018080602001828103825260178152602001807f4d757374206265206f776e657220746f2075706461746500000000000000000081525060200191505060405180910390fd5b80600490805190602001906107a1929190611018565b50600360405180828054600181600116156101000203166002900480156107ff5780601f106107dd5761010080835404028352918201916107ff565b820191906000526020600020905b8154815290600101906020018083116107eb575b50509150506040518091039020600260009054906101000a900473ffffffffffffffffffffffffffffffffffffffff1673ffffffffffffffffffffffffffffffffffffffff167ff5acdb66b114f94a468ec7f4cce914d93b1e913ab05eb6f0ffda215ab7ea3774600460405180806020018281038252838181546001816001161561010002031660029004815260200191508054600181600116156101000203166002900480156108f15780601f106108c6576101008083540402835291602001916108f1565b820191906000526020600020905b8154815290600101906020018083116108d457829003601f168201915b50509250505060405180910390a350565b600260009054906101000a900473ffffffffffffffffffffffffffffffffffffffff1673ffffffffffffffffffffffffffffffffffffffff163373ffffffffffffffffffffffffffffffffffffffff161415156109ed576040517f08c379a00000000000000000000000000000000000000000000000000000000081526004018080602001828103825260238152602001807f4d757374206265206f776e657220746f206368616e676520686972652073746181526020017f747573000000000000000000000000000000000000000000000000000000000081525060400191505060405180910390fd5b806000806101000a81548160ff0219169083151502179055506000809054906101000a900460ff161515600260009054906101000a900473ffffffffffffffffffffffffffffffffffffffff1673ffffffffffffffffffffffffffffffffffffffff167f8d16bf69b0ec2c317d3e62d8ebd39583b32378d6d2775e4ec00aa8e026f31f2160405160405180910390a350565b600260009054906101000a900473ffffffffffffffffffffffffffffffffffffffff1681565b60048054600181600116156101000203166002900480601f016020809104026020016040519081016040528092919081815260200182805460018160011615610100020316600290048015610b3b5780601f10610b1057610100808354040283529160200191610b3b565b820191906000526020600020905b815481529060010190602001808311610b1e57829003601f168201915b505050505081565b600260009054906101000a900473ffffffffffffffffffffffffffffffffffffffff1673ffffffffffffffffffffffffffffffffffffffff163373ffffffffffffffffffffffffffffffffffffffff16141515610c08576040517f08c379a000000000000000000000000000000000000000000000000000000000815260040180806020018281038252601a8152602001807f4d757374206265206f776e657220746f20696e6372656d656e7400000000000081525060200191505060405180910390fd5b6001805401600181905550600154600260009054906101000a900473ffffffffffffffffffffffffffffffffffffffff1673ffffffffffffffffffffffffffffffffffffffff167fd86092eacf4ede95285fb91146961eb8c0742ba24f89bbe619d9326d432283b560405160405180910390a3565b6000809054906101000a900460ff1681565b60015481565b600260009054906101000a900473ffffffffffffffffffffffffffffffffffffffff1673ffffffffffffffffffffffffffffffffffffffff163373ffffffffffffffffffffffffffffffffffffffff16141515610d5a576040517f08c379a00000000000000000000000000000000000000000000000000000000081526004018080602001828103825260178152602001807f4d757374206265206f776e657220746f2075706461746500000000000000000081525060200191505060405180910390fd5b8060039080519060200190610d70929190611018565b5060036040518082805460018160011615610100020316600290048015610dce5780601f10610dac576101008083540402835291820191610dce565b820191906000526020600020905b815481529060010190602001808311610dba575b50509150506040518091039020600260009054906101000a900473ffffffffffffffffffffffffffffffffffffffff1673ffffffffffffffffffffffffffffffffffffffff167ff5acdb66b114f94a468ec7f4cce914d93b1e913ab05eb6f0ffda215ab7ea377460046040518080602001828103825283818154600181600116156101000203166002900481526020019150805460018160011615610100020316600290048015610ec05780601f10610e9557610100808354040283529160200191610ec0565b820191906000526020600020905b815481529060010190602001808311610ea357829003601f168201915b50509250505060405180910390a350565b60608060036004818054600181600116156101000203166002900480601f016020809104026020016040519081016040528092919081815260200182805460018160011615610100020316600290048015610f6d5780601f10610f4257610100808354040283529160200191610f6d565b820191906000526020600020905b815481529060010190602001808311610f5057829003601f168201915b50505050509150808054600181600116156101000203166002900480601f0160208091040260200160405190810160405280929190818152602001828054600181600116156101000203166002900480156110095780601f10610fde57610100808354040283529160200191611009565b820191906000526020600020905b815481529060010190602001808311610fec57829003601f168201915b50505050509050915091509091565b828054600181600116156101000203166002900490600052602060002090601f016020900481019282601f1061105957805160ff1916838001178555611087565b82800160010185558215611087579182015b8281111561108657825182559160200191906001019061106b565b5b5090506110949190611098565b5090565b6110ba91905b808211156110b657600081600090555060010161109e565b5090565b9056fea165627a7a7230582059c10aae1b5640cc6752819cfce06dc59e09339cc3adca575fb87bb7d915376b0029",
  "source": "pragma solidity ^0.5.0;\n\ncontract Portfolio {\n  bool public hireMe = false;\n  uint public skillsTotal = 0;\n  address public owner;\n  string public firstName;\n  string public lastName;\n\n  event UpdateName(address indexed owner, string indexed first, string last);\n  event UpdateSkills(address indexed owner, uint indexed skills);\n  event UpdateHireStatus(address indexed owner, bool indexed hire);\n\n  // \"Payable\" allows Ether to be sent! Donate to me :)\n  constructor () public payable {\n    owner = msg.sender;\n    emit UpdateName(owner, firstName, lastName);\n  }\n\n  function isOwner(address _address) external view returns (bool) {\n    return _address == owner;\n  }\n\n  function updateFirstname(string memory _first) public {\n    require(msg.sender == owner, 'Must be owner to update');\n    firstName = _first;\n    emit UpdateName(owner, firstName, lastName);\n  }\n\n  function updateLastname(string memory _last) public {\n    require(msg.sender == owner, 'Must be owner to update');\n    lastName = _last;\n    emit UpdateName(owner, firstName, lastName);\n  }\n\n  function getFullname() public view returns(string memory _firstName, string memory _lastName) {\n    return (firstName, lastName);\n  }\n\n  function incrementSkills() public {\n    require(msg.sender == owner, 'Must be owner to increment');\n    skillsTotal = skillsTotal + 1;\n    emit UpdateSkills(owner, skillsTotal);\n  }\n\n  function updateHireStatus(bool _hire) public {\n    require(msg.sender == owner, 'Must be owner to change hire status');\n    hireMe = _hire;\n    emit UpdateHireStatus(owner, hireMe);\n  }\n}\n",
  "sourcePath": "/Users/trevorclarke/gitlab/circles/contracts/Portfolio.sol",
  "compiler": {
    "name": "solc",
    "version": "0.5.0+commit.1d4f565a.Emscripten.clang"
  },
  "schemaVersion": "3.0.6",
  "updatedAt": "2019-06-25T22:21:49.394Z",
  "devdoc": {
    "methods": {}
  },
  "userdoc": {
    "methods": {}
  }
}